:1000000019C020C01FC01EC01DC01CC01BC01AC00C
:1000100019C018C017C016C015C014C013C012C034
:1000200011C010C00FC00EC00DC00CC00BC00AC064
:1000300009C008C011241FBECFEFD2E0DEBFCDBF84
:1000400002D049C0DDCF0DD083B1882309F4299AAD
:1000500029982CD08050924010F0299AF5CF2998F9
:10006000F3CF14B8219A1AB8539AEAE7F0E08081E6
:1000700083688083ECE7F0E08081806480838CE992
:1000800080BF80B78F7780BF0895EAE7F0E0808176
:1000900083688083ECE7F0E080818064808308954A
:1000A0008CE980BF80B78F7780BF089505C08091AD
:1000B0007A00806480937A0080917A0084FFF7CF81
:1000C0002091780040917900942F80E030E0282B37
:0A00D000392BC9010895F894FFCF01
:00000001FF
