:1000000019C028C027C026C025C025C023C022C0D3
:1000100021C020C01FC01EC01DC01CC01BC01AC0F4
:1000200019C018C017C016C015C014C013C012C024
:1000300011C010C011241FBECFEFD2E0DEBFCDBF74
:1000400011E0A0E0B1E001C01D92A031B107E1F7DD
:100050004ED0AEC2D5CF1F920F920FB60F92112481
:100060008F934E9902C081E001C080E18093080126
:100070008F910F900FBE0F901F90189585E090E024
:10008000299A2FEF31EE44E0215030404040E1F713
:1000900000C0000029982FEF31EE44E0215030409D
:1000A0004040E1F700C00000019751F729980895FA
:1000B0008FE19EE40197F1F700C0000083B180FD5D
:1000C00012C08FE19EE40197F1F700C0000083B1F8
:1000D00080FD0BC08FE097E20197F1F700C00000B0
:1000E00083B18170089581E0089581E00895CF92F1
:1000F000DF92EF92FF920F931F93DF93CF9300D085
:10010000CDB7DEB707D103E010E033D17C01C4D115
:10011000CFDF91E0882311F090E063C048EEE41651
:10012000F10408F45EC020910C0130910D01809122
:100130000A0190910B01F901E81BF90BF093010101
:10014000E093000180910E0190910F01821B930BAF
:100150009093030180930201809102019091030129
:100160002091000130910101821B930B9695879598
:100170009695879590930501809304014091000125
:10018000509101018091020190910301209104019D
:1001900030910501840F951F821B930B90930701EB
:1001A0008093060180910601909107018659904045
:1001B00090930701809306018091060190910701B9
:1001C000BCD1299A5B9AF5E8FA95F1F7000070DF47
:1001D0008823C9F38091060190910701CF97ADD193
:1001E0008AC048EEE416F10408F08FCF992309F491
:1001F0008CCF20910C0130910D0180910A019091DA
:100200000B01F901E81BF90BF0930101E0930001E8
:1002100080910E0190910F01821B930B909303012B
:1002200080930201809102019091030120910001CD
:1002300030910101821B930B969587959695879532
:1002400090930501809304014091000150910101B8
:1002500080910201909103012091040130910501E8
:10026000840F951F821B930B9093070180930601C7
:100270008091060190910701865990409093070163
:10028000809306018091000190910101C0900401CA
:10029000D0900501CC0CDD1CC80ED91ECC0CDD1C89
:1002A000FAE0EF16F10438F0C7010997B8016CD1F4
:1002B0006E5F7F4F02C061E070E080910601909117
:1002C000070169837A8339D1299A5B9A69817A8196
:1002D000C69EC001C79E900DD69E900D112410920F
:1002E000850010928400CF97209184003091850082
:1002F00028173907C8F35B982998C0DE06CFEAE7CC
:10030000F0E08081856C8083ECE7F0E0808180669E
:100310008083089583B783BF85B7806185BFE8E692
:10032000F0E0808184608083EDE6F0E0808180648D
:10033000808314B815B8219A1AB8539A5B982998F3
:10034000DEDFE1E8F0E0808184608083EFE6F0E0CA
:10035000808180628083089580917A008064809398
:100360007A0080917A0084FFF7CF8091790090E045
:100370000895EF92FF920F931F93DF93CF93CDB722
:10038000DEB760970FB6F894DEBF0FBECDBF8E010B
:100390000F5F1F4F91E1E92EF12CEC0EFD1EDCDF0B
:1003A000F801819391938F01EE15FF05C1F7FE01CE
:1003B00033962191319189819A81280F391F3A838F
:1003C0002983EE15FF05A9F783E0369527958A95D1
:1003D000E1F7C90160960FB6F894DEBF0FBECDBF3E
:1003E000CF91DF911F910F91FF90EF900895FC0145
:1003F00020813181FB0180819181281B390BC9014A
:100400000895109285001092840081E08093090184
:1004100078940EC080910801813051F41092090146
:10042000809184009091850090930B0180930A0144
:1004300080910901882371F781E0809309010EC042
:1004400080910801803151F410920901809184005B
:100450009091850090930D0180930C01809109018A
:10046000882371F781E0809309010FC08091080112
:10047000813059F410920901809184009091850097
:1004800090930F0180930E01F894809109018823C5
:1004900069F780E090E00895EF92FF920F931F9329
:1004A000CF93DF93AEDF00910A0110910B01E09032
:1004B0000C01F0900D01C0910E01D0910F01A1DF50
:1004C00080910C0190910D019701281B390BC901F6
:1004D000439621E08732910508F020E040910A011F
:1004E00050910B01041B150B0D5E1F4F81E007326D
:1004F000110508F080E0282330E080910E019091F2
:100500000F01C81BD90B639681E090E0C732D1057B
:1005100010F080E090E082239323009721F4BCDF69
:1005200020E030E002C021E030E0C901DF91CF914E
:100530001F910F91FF90EF900895789421E0209300
:1005400009010BC020910801213039F4F894109270
:100550008500109284001092090120910901222344
:1005600089F721E02093090107C020918400309190
:1005700085002817390730F4209109012223A9F7B3
:1005800081E0089580E00895AA1BBB1B51E107C0DC
:10059000AA1FBB1FA617B70710F0A61BB70B881F13
:1005A000991F5A95A9F780959095BC01CD010895A2
:0405B000F894FFCFED
:00000001FF
